{
  "_format": "hh-sol-artifact-1",
  "contractName": "DecentralizedKYC1",
  "sourceName": "contracts/DecentralizedKYC1.sol",
  "abi": [
    {
      "inputs": [],
      "stateMutability": "nonpayable",
      "type": "constructor"
    },
    {
      "inputs": [],
      "name": "admin",
      "outputs": [
        {
          "internalType": "address",
          "name": "",
          "type": "address"
        }
      ],
      "stateMutability": "view",
      "type": "function"
    },
    {
      "inputs": [],
      "name": "getAllBanksAddress",
      "outputs": [
        {
          "internalType": "address[]",
          "name": "",
          "type": "address[]"
        }
      ],
      "stateMutability": "view",
      "type": "function"
    },
    {
      "inputs": [],
      "name": "getBank",
      "outputs": [
        {
          "components": [
            {
              "internalType": "string",
              "name": "name",
              "type": "string"
            },
            {
              "internalType": "string",
              "name": "license",
              "type": "string"
            },
            {
              "internalType": "bool",
              "name": "isRegistered",
              "type": "bool"
            },
            {
              "internalType": "bool",
              "name": "isVerified",
              "type": "bool"
            }
          ],
          "internalType": "struct DecentralizedKYC1.Bank",
          "name": "",
          "type": "tuple"
        }
      ],
      "stateMutability": "view",
      "type": "function"
    },
    {
      "inputs": [],
      "name": "getBankClients",
      "outputs": [
        {
          "internalType": "address[]",
          "name": "",
          "type": "address[]"
        }
      ],
      "stateMutability": "view",
      "type": "function"
    },
    {
      "inputs": [
        {
          "internalType": "address",
          "name": "_bank",
          "type": "address"
        }
      ],
      "name": "getBankClientsAddrSupp",
      "outputs": [
        {
          "internalType": "address[]",
          "name": "",
          "type": "address[]"
        }
      ],
      "stateMutability": "view",
      "type": "function"
    },
    {
      "inputs": [
        {
          "internalType": "address",
          "name": "_bank",
          "type": "address"
        }
      ],
      "name": "getBankDetails",
      "outputs": [
        {
          "components": [
            {
              "internalType": "string",
              "name": "name",
              "type": "string"
            },
            {
              "internalType": "string",
              "name": "license",
              "type": "string"
            },
            {
              "internalType": "bool",
              "name": "isRegistered",
              "type": "bool"
            },
            {
              "internalType": "bool",
              "name": "isVerified",
              "type": "bool"
            }
          ],
          "internalType": "struct DecentralizedKYC1.Bank",
          "name": "",
          "type": "tuple"
        }
      ],
      "stateMutability": "view",
      "type": "function"
    },
    {
      "inputs": [],
      "name": "getKYC",
      "outputs": [
        {
          "components": [
            {
              "internalType": "string",
              "name": "jsonHash",
              "type": "string"
            },
            {
              "internalType": "string",
              "name": "passportHash",
              "type": "string"
            },
            {
              "internalType": "string",
              "name": "citizenshipFrontHash",
              "type": "string"
            },
            {
              "internalType": "string",
              "name": "citizenshipBackHash",
              "type": "string"
            },
            {
              "internalType": "uint256",
              "name": "privateKey",
              "type": "uint256"
            },
            {
              "internalType": "uint256",
              "name": "publicKey",
              "type": "uint256"
            },
            {
              "internalType": "uint256",
              "name": "encryptKey",
              "type": "uint256"
            },
            {
              "internalType": "address",
              "name": "verifiedBy",
              "type": "address"
            }
          ],
          "internalType": "struct DecentralizedKYC1.Kyc",
          "name": "",
          "type": "tuple"
        }
      ],
      "stateMutability": "view",
      "type": "function"
    },
    {
      "inputs": [],
      "name": "getMessageSender",
      "outputs": [
        {
          "internalType": "address",
          "name": "",
          "type": "address"
        }
      ],
      "stateMutability": "view",
      "type": "function"
    },
    {
      "inputs": [],
      "name": "getReceivedRequests",
      "outputs": [
        {
          "internalType": "address[]",
          "name": "",
          "type": "address[]"
        }
      ],
      "stateMutability": "view",
      "type": "function"
    },
    {
      "inputs": [],
      "name": "getRequestedBank",
      "outputs": [
        {
          "internalType": "address",
          "name": "",
          "type": "address"
        }
      ],
      "stateMutability": "view",
      "type": "function"
    },
    {
      "inputs": [],
      "name": "getRequestedUsers",
      "outputs": [
        {
          "internalType": "address[]",
          "name": "",
          "type": "address[]"
        }
      ],
      "stateMutability": "view",
      "type": "function"
    },
    {
      "inputs": [],
      "name": "getSentRequests",
      "outputs": [
        {
          "internalType": "address[]",
          "name": "",
          "type": "address[]"
        }
      ],
      "stateMutability": "view",
      "type": "function"
    },
    {
      "inputs": [],
      "name": "getUser",
      "outputs": [
        {
          "components": [
            {
              "internalType": "string",
              "name": "name",
              "type": "string"
            },
            {
              "internalType": "string",
              "name": "email",
              "type": "string"
            },
            {
              "internalType": "string",
              "name": "phone",
              "type": "string"
            },
            {
              "internalType": "bool",
              "name": "isRegistered",
              "type": "bool"
            },
            {
              "internalType": "enum DecentralizedKYC1.KYC_STATUS",
              "name": "kycStatus",
              "type": "uint8"
            }
          ],
          "internalType": "struct DecentralizedKYC1.User",
          "name": "",
          "type": "tuple"
        }
      ],
      "stateMutability": "view",
      "type": "function"
    },
    {
      "inputs": [],
      "name": "getUserAllBanks",
      "outputs": [
        {
          "internalType": "address[]",
          "name": "",
          "type": "address[]"
        }
      ],
      "stateMutability": "view",
      "type": "function"
    },
    {
      "inputs": [],
      "name": "getUserCount",
      "outputs": [
        {
          "internalType": "uint256",
          "name": "count",
          "type": "uint256"
        }
      ],
      "stateMutability": "view",
      "type": "function"
    },
    {
      "inputs": [
        {
          "internalType": "address",
          "name": "user",
          "type": "address"
        }
      ],
      "name": "getUserDetails",
      "outputs": [
        {
          "components": [
            {
              "internalType": "string",
              "name": "name",
              "type": "string"
            },
            {
              "internalType": "string",
              "name": "email",
              "type": "string"
            },
            {
              "internalType": "string",
              "name": "phone",
              "type": "string"
            },
            {
              "internalType": "bool",
              "name": "isRegistered",
              "type": "bool"
            },
            {
              "internalType": "enum DecentralizedKYC1.KYC_STATUS",
              "name": "kycStatus",
              "type": "uint8"
            }
          ],
          "internalType": "struct DecentralizedKYC1.User",
          "name": "",
          "type": "tuple"
        }
      ],
      "stateMutability": "view",
      "type": "function"
    },
    {
      "inputs": [
        {
          "internalType": "address",
          "name": "_userAddress",
          "type": "address"
        }
      ],
      "name": "getUserKYC",
      "outputs": [
        {
          "components": [
            {
              "internalType": "string",
              "name": "jsonHash",
              "type": "string"
            },
            {
              "internalType": "string",
              "name": "passportHash",
              "type": "string"
            },
            {
              "internalType": "string",
              "name": "citizenshipFrontHash",
              "type": "string"
            },
            {
              "internalType": "string",
              "name": "citizenshipBackHash",
              "type": "string"
            },
            {
              "internalType": "uint256",
              "name": "privateKey",
              "type": "uint256"
            },
            {
              "internalType": "uint256",
              "name": "publicKey",
              "type": "uint256"
            },
            {
              "internalType": "uint256",
              "name": "encryptKey",
              "type": "uint256"
            },
            {
              "internalType": "address",
              "name": "verifiedBy",
              "type": "address"
            }
          ],
          "internalType": "struct DecentralizedKYC1.Kyc",
          "name": "",
          "type": "tuple"
        }
      ],
      "stateMutability": "view",
      "type": "function"
    },
    {
      "inputs": [],
      "name": "getVerifiedBankCount",
      "outputs": [
        {
          "internalType": "uint256",
          "name": "count",
          "type": "uint256"
        }
      ],
      "stateMutability": "view",
      "type": "function"
    },
    {
      "inputs": [
        {
          "internalType": "address",
          "name": "_bank",
          "type": "address"
        }
      ],
      "name": "grantAccess",
      "outputs": [],
      "stateMutability": "nonpayable",
      "type": "function"
    },
    {
      "inputs": [],
      "name": "isAdmin",
      "outputs": [
        {
          "internalType": "bool",
          "name": "",
          "type": "bool"
        }
      ],
      "stateMutability": "view",
      "type": "function"
    },
    {
      "inputs": [],
      "name": "isBankValid",
      "outputs": [
        {
          "internalType": "bool",
          "name": "",
          "type": "bool"
        }
      ],
      "stateMutability": "view",
      "type": "function"
    },
    {
      "inputs": [],
      "name": "isBankVerified",
      "outputs": [
        {
          "internalType": "bool",
          "name": "",
          "type": "bool"
        }
      ],
      "stateMutability": "view",
      "type": "function"
    },
    {
      "inputs": [],
      "name": "isUserValid",
      "outputs": [
        {
          "internalType": "bool",
          "name": "",
          "type": "bool"
        }
      ],
      "stateMutability": "view",
      "type": "function"
    },
    {
      "inputs": [
        {
          "internalType": "string",
          "name": "_name",
          "type": "string"
        },
        {
          "internalType": "string",
          "name": "_license",
          "type": "string"
        }
      ],
      "name": "registerBank",
      "outputs": [],
      "stateMutability": "nonpayable",
      "type": "function"
    },
    {
      "inputs": [
        {
          "internalType": "string",
          "name": "_name",
          "type": "string"
        },
        {
          "internalType": "string",
          "name": "_email",
          "type": "string"
        },
        {
          "internalType": "string",
          "name": "_phone",
          "type": "string"
        }
      ],
      "name": "registerUser",
      "outputs": [],
      "stateMutability": "nonpayable",
      "type": "function"
    },
    {
      "inputs": [
        {
          "internalType": "address",
          "name": "_userAddress",
          "type": "address"
        }
      ],
      "name": "rejectUserKYC",
      "outputs": [
        {
          "internalType": "string",
          "name": "",
          "type": "string"
        }
      ],
      "stateMutability": "nonpayable",
      "type": "function"
    },
    {
      "inputs": [
        {
          "internalType": "address",
          "name": "_client",
          "type": "address"
        }
      ],
      "name": "requestAccess",
      "outputs": [],
      "stateMutability": "nonpayable",
      "type": "function"
    },
    {
      "inputs": [
        {
          "internalType": "address",
          "name": "_bank",
          "type": "address"
        }
      ],
      "name": "requestVerification",
      "outputs": [],
      "stateMutability": "nonpayable",
      "type": "function"
    },
    {
      "inputs": [
        {
          "internalType": "string",
          "name": "_jsonHash",
          "type": "string"
        },
        {
          "internalType": "string",
          "name": "_photoHash",
          "type": "string"
        },
        {
          "internalType": "string",
          "name": "_frontHash",
          "type": "string"
        },
        {
          "internalType": "string",
          "name": "_backHash",
          "type": "string"
        },
        {
          "internalType": "uint256",
          "name": "_privateKey",
          "type": "uint256"
        },
        {
          "internalType": "uint256",
          "name": "_publicKey",
          "type": "uint256"
        },
        {
          "internalType": "uint256",
          "name": "_encryptKey",
          "type": "uint256"
        }
      ],
      "name": "uploadKyc",
      "outputs": [],
      "stateMutability": "nonpayable",
      "type": "function"
    },
    {
      "inputs": [
        {
          "internalType": "address",
          "name": "_bank",
          "type": "address"
        }
      ],
      "name": "verifyBank",
      "outputs": [],
      "stateMutability": "nonpayable",
      "type": "function"
    },
    {
      "inputs": [
        {
          "internalType": "address",
          "name": "_userAddress",
          "type": "address"
        }
      ],
      "name": "verifyUserKYC",
      "outputs": [
        {
          "internalType": "string",
          "name": "",
          "type": "string"
        }
      ],
      "stateMutability": "nonpayable",
      "type": "function"
    }
  ],
  "bytecode": "0x608060405234801561001057600080fd5b50336000806101000a81548173ffffffffffffffffffffffffffffffffffffffff021916908373ffffffffffffffffffffffffffffffffffffffff160217905550615194806100606000396000f3fe608060405234801561001057600080fd5b50600436106101e55760003560e01c8063832880e71161010f578063cfdade6d116100a2578063e7e5798e11610071578063e7e5798e14610562578063f0618ef814610592578063f851a440146105ae578063fe9007a1146105cc576101e5565b8063cfdade6d146104ec578063d1d3c97c1461050a578063d637dcfa14610528578063d8228fca14610544576101e5565b8063b5cb15f7116100de578063b5cb15f714610450578063b6db75a01461046e578063c70d95681461048c578063cc3d967b146104bc576101e5565b8063832880e7146103c65780638abb50ab146103e45780639832bc14146104025780639d80358d14610420576101e5565b80635a68d8b4116101875780636da04e64116101565780636da04e641461033e5780637181454c1461035a57806372515b031461037857806376167a89146103a8576101e5565b80635a68d8b4146102ca57806360d704db146102e657806363d5ed501461030457806369c8d7a914610322576101e5565b806315101e02116101c357806315101e021461024057806335c95c4014610270578063394b6f0e1461028e57806346cbe68a146102ac576101e5565b8063022cb271146101ea578063082eaf81146102065780630ae5e73914610224575b600080fd5b61020460048036038101906101ff9190613f4d565b6105ea565b005b61020e610885565b60405161021b9190614038565b60405180910390f35b61023e60048036038101906102399190613f4d565b6109e6565b005b61025a60048036038101906102559190613f4d565b610bdf565b604051610267919061416f565b60405180910390f35b610278610e28565b6040516102859190614038565b60405180910390f35b610296610ef3565b6040516102a39190614038565b60405180910390f35b6102b4610fbe565b6040516102c191906141aa565b60405180910390f35b6102e460048036038101906102df9190614326565b610fcb565b005b6102ee61135d565b6040516102fb919061416f565b60405180910390f35b61030c6115a4565b6040516103199190614038565b60405180910390f35b61033c60048036038101906103379190614438565b611705565b005b61035860048036038101906103539190613f4d565b61196d565b005b610362611be8565b60405161036f9190614038565b60405180910390f35b610392600480360381019061038d9190613f4d565b611d97565b60405161039f9190614584565b60405180910390f35b6103b061228f565b6040516103bd91906145b5565b60405180910390f35b6103ce612297565b6040516103db91906146cb565b60405180910390f35b6103ec612590565b6040516103f99190614038565b60405180910390f35b61040a61261e565b60405161041791906146fc565b60405180910390f35b61043a60048036038101906104359190613f4d565b61268c565b6040516104479190614761565b60405180910390f35b610458612918565b60405161046591906141aa565b60405180910390f35b610476612925565b60405161048391906146fc565b60405180910390f35b6104a660048036038101906104a19190613f4d565b61298b565b6040516104b39190614038565b60405180910390f35b6104d660048036038101906104d19190613f4d565b612a58565b6040516104e391906146cb565b60405180910390f35b6104f4612d6b565b60405161050191906146fc565b60405180910390f35b610512612dd9565b60405161051f9190614584565b60405180910390f35b610542600480360381019061053d9190614783565b613239565b005b61054c6134de565b60405161055991906146fc565b60405180910390f35b61057c60048036038101906105779190613f4d565b61354c565b6040516105899190614761565b60405180910390f35b6105ac60048036038101906105a79190613f4d565b61397c565b005b6105b6613cf0565b6040516105c391906145b5565b60405180910390f35b6105d4613d14565b6040516105e191906145b5565b60405180910390f35b60011515600260003373ffffffffffffffffffffffffffffffffffffffff1673ffffffffffffffffffffffffffffffffffffffff16815260200190815260200160002060020160019054906101000a900460ff16151514610680576040517f08c379a000000000000000000000000000000000000000000000000000000000815260040161067790614876565b60405180910390fd5b60036004811115610694576106936145d0565b5b600160008373ffffffffffffffffffffffffffffffffffffffff1673ffffffffffffffffffffffffffffffffffffffff16815260200190815260200160002060030160019054906101000a900460ff1660048111156106f6576106f56145d0565b5b14610736576040517f08c379a000000000000000000000000000000000000000000000000000000000815260040161072d906148e2565b60405180910390fd5b6000600660003373ffffffffffffffffffffffffffffffffffffffff1673ffffffffffffffffffffffffffffffffffffffff168152602001908152602001600020905080829080600181540180825580915050600190039060005260206000200160009091909190916101000a81548173ffffffffffffffffffffffffffffffffffffffff021916908373ffffffffffffffffffffffffffffffffffffffff1602179055506000600760008473ffffffffffffffffffffffffffffffffffffffff1673ffffffffffffffffffffffffffffffffffffffff168152602001908152602001600020905080339080600181540180825580915050600190039060005260206000200160009091909190916101000a81548173ffffffffffffffffffffffffffffffffffffffff021916908373ffffffffffffffffffffffffffffffffffffffff160217905550505050565b606060011515600260003373ffffffffffffffffffffffffffffffffffffffff1673ffffffffffffffffffffffffffffffffffffffff16815260200190815260200160002060020160019054906101000a900460ff1615151461091d576040517f08c379a000000000000000000000000000000000000000000000000000000000815260040161091490614876565b60405180910390fd5b600860003373ffffffffffffffffffffffffffffffffffffffff1673ffffffffffffffffffffffffffffffffffffffff1681526020019081526020016000208054806020026020016040519081016040528092919081815260200182805480156109dc57602002820191906000526020600020905b8160009054906101000a900473ffffffffffffffffffffffffffffffffffffffff1673ffffffffffffffffffffffffffffffffffffffff1681526020019060010190808311610992575b5050505050905090565b600360048111156109fa576109f96145d0565b5b600160003373ffffffffffffffffffffffffffffffffffffffff1673ffffffffffffffffffffffffffffffffffffffff16815260200190815260200160002060030160019054906101000a900460ff166004811115610a5c57610a5b6145d0565b5b14610a9c576040517f08c379a0000000000000000000000000000000000000000000000000000000008152600401610a93906148e2565b60405180910390fd5b600860008273ffffffffffffffffffffffffffffffffffffffff1673ffffffffffffffffffffffffffffffffffffffff168152602001908152602001600020339080600181540180825580915050600190039060005260206000200160009091909190916101000a81548173ffffffffffffffffffffffffffffffffffffffff021916908373ffffffffffffffffffffffffffffffffffffffff160217905550600960003373ffffffffffffffffffffffffffffffffffffffff1673ffffffffffffffffffffffffffffffffffffffff168152602001908152602001600020819080600181540180825580915050600190039060005260206000200160009091909190916101000a81548173ffffffffffffffffffffffffffffffffffffffff021916908373ffffffffffffffffffffffffffffffffffffffff16021790555050565b610be7613e11565b60011515600260008473ffffffffffffffffffffffffffffffffffffffff1673ffffffffffffffffffffffffffffffffffffffff16815260200190815260200160002060020160009054906101000a900460ff16151514610c7d576040517f08c379a0000000000000000000000000000000000000000000000000000000008152600401610c749061494e565b60405180910390fd5b600260008373ffffffffffffffffffffffffffffffffffffffff1673ffffffffffffffffffffffffffffffffffffffff168152602001908152602001600020604051806080016040529081600082018054610cd79061499d565b80601f0160208091040260200160405190810160405280929190818152602001828054610d039061499d565b8015610d505780601f10610d2557610100808354040283529160200191610d50565b820191906000526020600020905b815481529060010190602001808311610d3357829003601f168201915b50505050508152602001600182018054610d699061499d565b80601f0160208091040260200160405190810160405280929190818152602001828054610d959061499d565b8015610de25780601f10610db757610100808354040283529160200191610de2565b820191906000526020600020905b815481529060010190602001808311610dc557829003601f168201915b505050505081526020016002820160009054906101000a900460ff161515151581526020016002820160019054906101000a900460ff1615151515815250509050919050565b6060600660003373ffffffffffffffffffffffffffffffffffffffff1673ffffffffffffffffffffffffffffffffffffffff168152602001908152602001600020805480602002602001604051908101604052809291908181526020018280548015610ee957602002820191906000526020600020905b8160009054906101000a900473ffffffffffffffffffffffffffffffffffffffff1673ffffffffffffffffffffffffffffffffffffffff1681526020019060010190808311610e9f575b5050505050905090565b6060600760003373ffffffffffffffffffffffffffffffffffffffff1673ffffffffffffffffffffffffffffffffffffffff168152602001908152602001600020805480602002602001604051908101604052809291908181526020018280548015610fb457602002820191906000526020600020905b8160009054906101000a900473ffffffffffffffffffffffffffffffffffffffff1673ffffffffffffffffffffffffffffffffffffffff1681526020019060010190808311610f6a575b5050505050905090565b6000600c80549050905090565b60011515600160003373ffffffffffffffffffffffffffffffffffffffff1673ffffffffffffffffffffffffffffffffffffffff16815260200190815260200160002060030160009054906101000a900460ff16151514611061576040517f08c379a000000000000000000000000000000000000000000000000000000000815260040161105890614a1a565b60405180910390fd5b60006004811115611075576110746145d0565b5b600160003373ffffffffffffffffffffffffffffffffffffffff1673ffffffffffffffffffffffffffffffffffffffff16815260200190815260200160002060030160019054906101000a900460ff1660048111156110d7576110d66145d0565b5b148061115557506004808111156110f1576110f06145d0565b5b600160003373ffffffffffffffffffffffffffffffffffffffff1673ffffffffffffffffffffffffffffffffffffffff16815260200190815260200160002060030160019054906101000a900460ff166004811115611153576111526145d0565b5b145b611194576040517f08c379a000000000000000000000000000000000000000000000000000000000815260040161118b90614a86565b60405180910390fd5b6000604051806101000160405280898152602001888152602001878152602001868152602001858152602001848152602001838152602001600073ffffffffffffffffffffffffffffffffffffffff16815250905080600360003373ffffffffffffffffffffffffffffffffffffffff1673ffffffffffffffffffffffffffffffffffffffff168152602001908152602001600020600082015181600001908161123e9190614c52565b5060208201518160010190816112549190614c52565b50604082015181600201908161126a9190614c52565b5060608201518160030190816112809190614c52565b506080820151816004015560a0820151816005015560c0820151816006015560e08201518160070160006101000a81548173ffffffffffffffffffffffffffffffffffffffff021916908373ffffffffffffffffffffffffffffffffffffffff16021790555090505060018060003373ffffffffffffffffffffffffffffffffffffffff1673ffffffffffffffffffffffffffffffffffffffff16815260200190815260200160002060030160016101000a81548160ff0219169083600481111561134e5761134d6145d0565b5b02179055505050505050505050565b611365613e11565b60011515600260003373ffffffffffffffffffffffffffffffffffffffff1673ffffffffffffffffffffffffffffffffffffffff16815260200190815260200160002060020160009054906101000a900460ff161515146113fb576040517f08c379a00000000000000000000000000000000000000000000000000000000081526004016113f29061494e565b60405180910390fd5b600260003373ffffffffffffffffffffffffffffffffffffffff1673ffffffffffffffffffffffffffffffffffffffff1681526020019081526020016000206040518060800160405290816000820180546114559061499d565b80601f01602080910402602001604051908101604052809291908181526020018280546114819061499d565b80156114ce5780601f106114a3576101008083540402835291602001916114ce565b820191906000526020600020905b8154815290600101906020018083116114b157829003601f168201915b505050505081526020016001820180546114e79061499d565b80601f01602080910402602001604051908101604052809291908181526020018280546115139061499d565b80156115605780601f1061153557610100808354040283529160200191611560565b820191906000526020600020905b81548152906001019060200180831161154357829003601f168201915b505050505081526020016002820160009054906101000a900460ff161515151581526020016002820160019054906101000a900460ff161515151581525050905090565b606060011515600160003373ffffffffffffffffffffffffffffffffffffffff1673ffffffffffffffffffffffffffffffffffffffff16815260200190815260200160002060030160009054906101000a900460ff1615151461163c576040517f08c379a000000000000000000000000000000000000000000000000000000000815260040161163390614a1a565b60405180910390fd5b600960003373ffffffffffffffffffffffffffffffffffffffff1673ffffffffffffffffffffffffffffffffffffffff1681526020019081526020016000208054806020026020016040519081016040528092919081815260200182805480156116fb57602002820191906000526020600020905b8160009054906101000a900473ffffffffffffffffffffffffffffffffffffffff1673ffffffffffffffffffffffffffffffffffffffff16815260200190600101908083116116b1575b5050505050905090565b60011515600260003373ffffffffffffffffffffffffffffffffffffffff1673ffffffffffffffffffffffffffffffffffffffff16815260200190815260200160002060020160009054906101000a900460ff1615150361179b576040517f08c379a000000000000000000000000000000000000000000000000000000000815260040161179290614d70565b60405180910390fd5b60011515600160003373ffffffffffffffffffffffffffffffffffffffff1673ffffffffffffffffffffffffffffffffffffffff16815260200190815260200160002060030160009054906101000a900460ff16151503611831576040517f08c379a000000000000000000000000000000000000000000000000000000000815260040161182890614e02565b60405180910390fd5b604051806080016040528083815260200182815260200160011515815260200160001515815250600260003373ffffffffffffffffffffffffffffffffffffffff1673ffffffffffffffffffffffffffffffffffffffff16815260200190815260200160002060008201518160000190816118ac9190614c52565b5060208201518160010190816118c29190614c52565b5060408201518160020160006101000a81548160ff02191690831515021790555060608201518160020160016101000a81548160ff021916908315150217905550905050600a339080600181540180825580915050600190039060005260206000200160009091909190916101000a81548173ffffffffffffffffffffffffffffffffffffffff021916908373ffffffffffffffffffffffffffffffffffffffff1602179055505050565b60008054906101000a900473ffffffffffffffffffffffffffffffffffffffff1673ffffffffffffffffffffffffffffffffffffffff163373ffffffffffffffffffffffffffffffffffffffff16146119fb576040517f08c379a00000000000000000000000000000000000000000000000000000000081526004016119f290614e6e565b60405180910390fd5b60011515600260008373ffffffffffffffffffffffffffffffffffffffff1673ffffffffffffffffffffffffffffffffffffffff16815260200190815260200160002060020160009054906101000a900460ff16151514611a91576040517f08c379a0000000000000000000000000000000000000000000000000000000008152600401611a889061494e565b60405180910390fd5b60001515600260008373ffffffffffffffffffffffffffffffffffffffff1673ffffffffffffffffffffffffffffffffffffffff16815260200190815260200160002060020160019054906101000a900460ff16151514611b27576040517f08c379a0000000000000000000000000000000000000000000000000000000008152600401611b1e90614eda565b60405180910390fd5b6001600260008373ffffffffffffffffffffffffffffffffffffffff1673ffffffffffffffffffffffffffffffffffffffff16815260200190815260200160002060020160016101000a81548160ff021916908315150217905550600c819080600181540180825580915050600190039060005260206000200160009091909190916101000a81548173ffffffffffffffffffffffffffffffffffffffff021916908373ffffffffffffffffffffffffffffffffffffffff16021790555050565b606060011515600260003373ffffffffffffffffffffffffffffffffffffffff1673ffffffffffffffffffffffffffffffffffffffff16815260200190815260200160002060020160009054906101000a900460ff16151514611c80576040517f08c379a0000000000000000000000000000000000000000000000000000000008152600401611c779061494e565b60405180910390fd5b60011515611c8c612d6b565b151514611cce576040517f08c379a0000000000000000000000000000000000000000000000000000000008152600401611cc590614876565b60405180910390fd5b600460003373ffffffffffffffffffffffffffffffffffffffff1673ffffffffffffffffffffffffffffffffffffffff168152602001908152602001600020805480602002602001604051908101604052809291908181526020018280548015611d8d57602002820191906000526020600020905b8160009054906101000a900473ffffffffffffffffffffffffffffffffffffffff1673ffffffffffffffffffffffffffffffffffffffff1681526020019060010190808311611d43575b5050505050905090565b611d9f613e3d565b60011515600260003373ffffffffffffffffffffffffffffffffffffffff1673ffffffffffffffffffffffffffffffffffffffff16815260200190815260200160002060020160009054906101000a900460ff16151514611e35576040517f08c379a0000000000000000000000000000000000000000000000000000000008152600401611e2c9061494e565b60405180910390fd5b60011515600260003373ffffffffffffffffffffffffffffffffffffffff1673ffffffffffffffffffffffffffffffffffffffff16815260200190815260200160002060020160019054906101000a900460ff16151514611ecb576040517f08c379a0000000000000000000000000000000000000000000000000000000008152600401611ec290614876565b60405180910390fd5b60006004811115611edf57611ede6145d0565b5b600160008473ffffffffffffffffffffffffffffffffffffffff1673ffffffffffffffffffffffffffffffffffffffff16815260200190815260200160002060030160019054906101000a900460ff166004811115611f4157611f406145d0565b5b03611f81576040517f08c379a0000000000000000000000000000000000000000000000000000000008152600401611f7890614f46565b60405180910390fd5b600360008373ffffffffffffffffffffffffffffffffffffffff1673ffffffffffffffffffffffffffffffffffffffff16815260200190815260200160002060405180610100016040529081600082018054611fdc9061499d565b80601f01602080910402602001604051908101604052809291908181526020018280546120089061499d565b80156120555780601f1061202a57610100808354040283529160200191612055565b820191906000526020600020905b81548152906001019060200180831161203857829003601f168201915b5050505050815260200160018201805461206e9061499d565b80601f016020809104026020016040519081016040528092919081815260200182805461209a9061499d565b80156120e75780601f106120bc576101008083540402835291602001916120e7565b820191906000526020600020905b8154815290600101906020018083116120ca57829003601f168201915b505050505081526020016002820180546121009061499d565b80601f016020809104026020016040519081016040528092919081815260200182805461212c9061499d565b80156121795780601f1061214e57610100808354040283529160200191612179565b820191906000526020600020905b81548152906001019060200180831161215c57829003601f168201915b505050505081526020016003820180546121929061499d565b80601f01602080910402602001604051908101604052809291908181526020018280546121be9061499d565b801561220b5780601f106121e05761010080835404028352916020019161220b565b820191906000526020600020905b8154815290600101906020018083116121ee57829003601f168201915b505050505081526020016004820154815260200160058201548152602001600682015481526020016007820160009054906101000a900473ffffffffffffffffffffffffffffffffffffffff1673ffffffffffffffffffffffffffffffffffffffff1673ffffffffffffffffffffffffffffffffffffffff16815250509050919050565b600033905090565b61229f613e98565b60011515600160003373ffffffffffffffffffffffffffffffffffffffff1673ffffffffffffffffffffffffffffffffffffffff16815260200190815260200160002060030160009054906101000a900460ff16151514612335576040517f08c379a000000000000000000000000000000000000000000000000000000000815260040161232c90614a1a565b60405180910390fd5b600160003373ffffffffffffffffffffffffffffffffffffffff1673ffffffffffffffffffffffffffffffffffffffff1681526020019081526020016000206040518060a001604052908160008201805461238f9061499d565b80601f01602080910402602001604051908101604052809291908181526020018280546123bb9061499d565b80156124085780601f106123dd57610100808354040283529160200191612408565b820191906000526020600020905b8154815290600101906020018083116123eb57829003601f168201915b505050505081526020016001820180546124219061499d565b80601f016020809104026020016040519081016040528092919081815260200182805461244d9061499d565b801561249a5780601f1061246f5761010080835404028352916020019161249a565b820191906000526020600020905b81548152906001019060200180831161247d57829003601f168201915b505050505081526020016002820180546124b39061499d565b80601f01602080910402602001604051908101604052809291908181526020018280546124df9061499d565b801561252c5780601f106125015761010080835404028352916020019161252c565b820191906000526020600020905b81548152906001019060200180831161250f57829003601f168201915b505050505081526020016003820160009054906101000a900460ff161515151581526020016003820160019054906101000a900460ff166004811115612575576125746145d0565b5b6004811115612587576125866145d0565b5b81525050905090565b6060600a80548060200260200160405190810160405280929190818152602001828054801561261457602002820191906000526020600020905b8160009054906101000a900473ffffffffffffffffffffffffffffffffffffffff1673ffffffffffffffffffffffffffffffffffffffff16815260200190600101908083116125ca575b5050505050905090565b600060011515600260003373ffffffffffffffffffffffffffffffffffffffff1673ffffffffffffffffffffffffffffffffffffffff16815260200190815260200160002060020160009054906101000a900460ff161515036126845760019050612689565b600090505b90565b606060011515600260003373ffffffffffffffffffffffffffffffffffffffff1673ffffffffffffffffffffffffffffffffffffffff16815260200190815260200160002060020160009054906101000a900460ff16151514612724576040517f08c379a000000000000000000000000000000000000000000000000000000000815260040161271b9061494e565b60405180910390fd5b60026004811115612738576127376145d0565b5b600160008473ffffffffffffffffffffffffffffffffffffffff1673ffffffffffffffffffffffffffffffffffffffff16815260200190815260200160002060030160019054906101000a900460ff16600481111561279a576127996145d0565b5b146127da576040517f08c379a00000000000000000000000000000000000000000000000000000000081526004016127d190614fb2565b60405180910390fd5b60011515600260003373ffffffffffffffffffffffffffffffffffffffff1673ffffffffffffffffffffffffffffffffffffffff16815260200190815260200160002060020160019054906101000a900460ff16151514612870576040517f08c379a000000000000000000000000000000000000000000000000000000000815260040161286790614876565b60405180910390fd5b6004600160008473ffffffffffffffffffffffffffffffffffffffff1673ffffffffffffffffffffffffffffffffffffffff16815260200190815260200160002060030160016101000a81548160ff021916908360048111156128d6576128d56145d0565b5b02179055506040518060400160405280601681526020017f4b594320686173206265656e2072656a656374656420000000000000000000008152509050919050565b6000600b80549050905090565b60003373ffffffffffffffffffffffffffffffffffffffff1660008054906101000a900473ffffffffffffffffffffffffffffffffffffffff1673ffffffffffffffffffffffffffffffffffffffff16036129835760019050612988565b600090505b90565b6060600860008373ffffffffffffffffffffffffffffffffffffffff1673ffffffffffffffffffffffffffffffffffffffff168152602001908152602001600020805480602002602001604051908101604052809291908181526020018280548015612a4c57602002820191906000526020600020905b8160009054906101000a900473ffffffffffffffffffffffffffffffffffffffff1673ffffffffffffffffffffffffffffffffffffffff1681526020019060010190808311612a02575b50505050509050919050565b612a60613e98565b60011515600260003373ffffffffffffffffffffffffffffffffffffffff1673ffffffffffffffffffffffffffffffffffffffff16815260200190815260200160002060020160009054906101000a900460ff16151514612af6576040517f08c379a0000000000000000000000000000000000000000000000000000000008152600401612aed9061494e565b60405180910390fd5b60011515612b0261261e565b151514612b0e57600080fd5b600160008373ffffffffffffffffffffffffffffffffffffffff1673ffffffffffffffffffffffffffffffffffffffff1681526020019081526020016000206040518060a0016040529081600082018054612b689061499d565b80601f0160208091040260200160405190810160405280929190818152602001828054612b949061499d565b8015612be15780601f10612bb657610100808354040283529160200191612be1565b820191906000526020600020905b815481529060010190602001808311612bc457829003601f168201915b50505050508152602001600182018054612bfa9061499d565b80601f0160208091040260200160405190810160405280929190818152602001828054612c269061499d565b8015612c735780601f10612c4857610100808354040283529160200191612c73565b820191906000526020600020905b815481529060010190602001808311612c5657829003601f168201915b50505050508152602001600282018054612c8c9061499d565b80601f0160208091040260200160405190810160405280929190818152602001828054612cb89061499d565b8015612d055780601f10612cda57610100808354040283529160200191612d05565b820191906000526020600020905b815481529060010190602001808311612ce857829003601f168201915b505050505081526020016003820160009054906101000a900460ff161515151581526020016003820160019054906101000a900460ff166004811115612d4e57612d4d6145d0565b5b6004811115612d6057612d5f6145d0565b5b815250509050919050565b600060011515600260003373ffffffffffffffffffffffffffffffffffffffff1673ffffffffffffffffffffffffffffffffffffffff16815260200190815260200160002060020160019054906101000a900460ff16151503612dd15760019050612dd6565b600090505b90565b612de1613e3d565b60011515600160003373ffffffffffffffffffffffffffffffffffffffff1673ffffffffffffffffffffffffffffffffffffffff16815260200190815260200160002060030160009054906101000a900460ff16151514612e77576040517f08c379a0000000000000000000000000000000000000000000000000000000008152600401612e6e90614a1a565b60405180910390fd5b60006004811115612e8b57612e8a6145d0565b5b600160003373ffffffffffffffffffffffffffffffffffffffff1673ffffffffffffffffffffffffffffffffffffffff16815260200190815260200160002060030160019054906101000a900460ff166004811115612eed57612eec6145d0565b5b03612f2d576040517f08c379a0000000000000000000000000000000000000000000000000000000008152600401612f2490614f46565b60405180910390fd5b600360003373ffffffffffffffffffffffffffffffffffffffff1673ffffffffffffffffffffffffffffffffffffffff16815260200190815260200160002060405180610100016040529081600082018054612f889061499d565b80601f0160208091040260200160405190810160405280929190818152602001828054612fb49061499d565b80156130015780601f10612fd657610100808354040283529160200191613001565b820191906000526020600020905b815481529060010190602001808311612fe457829003601f168201915b5050505050815260200160018201805461301a9061499d565b80601f01602080910402602001604051908101604052809291908181526020018280546130469061499d565b80156130935780601f1061306857610100808354040283529160200191613093565b820191906000526020600020905b81548152906001019060200180831161307657829003601f168201915b505050505081526020016002820180546130ac9061499d565b80601f01602080910402602001604051908101604052809291908181526020018280546130d89061499d565b80156131255780601f106130fa57610100808354040283529160200191613125565b820191906000526020600020905b81548152906001019060200180831161310857829003601f168201915b5050505050815260200160038201805461313e9061499d565b80601f016020809104026020016040519081016040528092919081815260200182805461316a9061499d565b80156131b75780601f1061318c576101008083540402835291602001916131b7565b820191906000526020600020905b81548152906001019060200180831161319a57829003601f168201915b505050505081526020016004820154815260200160058201548152602001600682015481526020016007820160009054906101000a900473ffffffffffffffffffffffffffffffffffffffff1673ffffffffffffffffffffffffffffffffffffffff1673ffffffffffffffffffffffffffffffffffffffff1681525050905090565b60011515600160003373ffffffffffffffffffffffffffffffffffffffff1673ffffffffffffffffffffffffffffffffffffffff16815260200190815260200160002060030160009054906101000a900460ff161515036132cf576040517f08c379a00000000000000000000000000000000000000000000000000000000081526004016132c69061501e565b60405180910390fd5b60011515600260003373ffffffffffffffffffffffffffffffffffffffff1673ffffffffffffffffffffffffffffffffffffffff16815260200190815260200160002060020160009054906101000a900460ff16151503613365576040517f08c379a000000000000000000000000000000000000000000000000000000000815260040161335c906150b0565b60405180910390fd5b6040518060a001604052808481526020018381526020018281526020016001151581526020016000600481111561339f5761339e6145d0565b5b815250600160003373ffffffffffffffffffffffffffffffffffffffff1673ffffffffffffffffffffffffffffffffffffffff16815260200190815260200160002060008201518160000190816133f69190614c52565b50602082015181600101908161340c9190614c52565b5060408201518160020190816134229190614c52565b5060608201518160030160006101000a81548160ff02191690831515021790555060808201518160030160016101000a81548160ff0219169083600481111561346e5761346d6145d0565b5b0217905550905050600b339080600181540180825580915050600190039060005260206000200160009091909190916101000a81548173ffffffffffffffffffffffffffffffffffffffff021916908373ffffffffffffffffffffffffffffffffffffffff160217905550505050565b600060011515600160003373ffffffffffffffffffffffffffffffffffffffff1673ffffffffffffffffffffffffffffffffffffffff16815260200190815260200160002060030160009054906101000a900460ff161515036135445760019050613549565b600090505b90565b606060011515600260003373ffffffffffffffffffffffffffffffffffffffff1673ffffffffffffffffffffffffffffffffffffffff16815260200190815260200160002060020160009054906101000a900460ff161515146135e4576040517f08c379a00000000000000000000000000000000000000000000000000000000081526004016135db9061494e565b60405180910390fd5b600260048111156135f8576135f76145d0565b5b600160008473ffffffffffffffffffffffffffffffffffffffff1673ffffffffffffffffffffffffffffffffffffffff16815260200190815260200160002060030160019054906101000a900460ff16600481111561365a576136596145d0565b5b1461369a576040517f08c379a000000000000000000000000000000000000000000000000000000000815260040161369190614fb2565b60405180910390fd5b60011515600260003373ffffffffffffffffffffffffffffffffffffffff1673ffffffffffffffffffffffffffffffffffffffff16815260200190815260200160002060020160019054906101000a900460ff16151514613730576040517f08c379a000000000000000000000000000000000000000000000000000000000815260040161372790614876565b60405180910390fd5b6003600160008473ffffffffffffffffffffffffffffffffffffffff1673ffffffffffffffffffffffffffffffffffffffff16815260200190815260200160002060030160016101000a81548160ff02191690836004811115613796576137956145d0565b5b0217905550600860003373ffffffffffffffffffffffffffffffffffffffff1673ffffffffffffffffffffffffffffffffffffffff168152602001908152602001600020829080600181540180825580915050600190039060005260206000200160009091909190916101000a81548173ffffffffffffffffffffffffffffffffffffffff021916908373ffffffffffffffffffffffffffffffffffffffff160217905550600960008373ffffffffffffffffffffffffffffffffffffffff1673ffffffffffffffffffffffffffffffffffffffff168152602001908152602001600020339080600181540180825580915050600190039060005260206000200160009091909190916101000a81548173ffffffffffffffffffffffffffffffffffffffff021916908373ffffffffffffffffffffffffffffffffffffffff16021790555033600360008473ffffffffffffffffffffffffffffffffffffffff1673ffffffffffffffffffffffffffffffffffffffff16815260200190815260200160002060070160006101000a81548173ffffffffffffffffffffffffffffffffffffffff021916908373ffffffffffffffffffffffffffffffffffffffff16021790555060405180606001604052806022815260200161513d602291399050919050565b60011515600160003373ffffffffffffffffffffffffffffffffffffffff1673ffffffffffffffffffffffffffffffffffffffff16815260200190815260200160002060030160009054906101000a900460ff16151514613a12576040517f08c379a0000000000000000000000000000000000000000000000000000000008152600401613a0990614a1a565b60405180910390fd5b60016004811115613a2657613a256145d0565b5b600160003373ffffffffffffffffffffffffffffffffffffffff1673ffffffffffffffffffffffffffffffffffffffff16815260200190815260200160002060030160019054906101000a900460ff166004811115613a8857613a876145d0565b5b14613ac8576040517f08c379a0000000000000000000000000000000000000000000000000000000008152600401613abf9061511c565b60405180910390fd5b60011515600260008373ffffffffffffffffffffffffffffffffffffffff1673ffffffffffffffffffffffffffffffffffffffff16815260200190815260200160002060020160019054906101000a900460ff16151514613b5e576040517f08c379a0000000000000000000000000000000000000000000000000000000008152600401613b5590614876565b60405180910390fd5b6000600460008373ffffffffffffffffffffffffffffffffffffffff1673ffffffffffffffffffffffffffffffffffffffff168152602001908152602001600020905080339080600181540180825580915050600190039060005260206000200160009091909190916101000a81548173ffffffffffffffffffffffffffffffffffffffff021916908373ffffffffffffffffffffffffffffffffffffffff1602179055506002600160003373ffffffffffffffffffffffffffffffffffffffff1673ffffffffffffffffffffffffffffffffffffffff16815260200190815260200160002060030160016101000a81548160ff02191690836004811115613c6957613c686145d0565b5b021790555081600560003373ffffffffffffffffffffffffffffffffffffffff1673ffffffffffffffffffffffffffffffffffffffff16815260200190815260200160002060006101000a81548173ffffffffffffffffffffffffffffffffffffffff021916908373ffffffffffffffffffffffffffffffffffffffff1602179055505050565b60008054906101000a900473ffffffffffffffffffffffffffffffffffffffff1681565b600060011515600160003373ffffffffffffffffffffffffffffffffffffffff1673ffffffffffffffffffffffffffffffffffffffff16815260200190815260200160002060030160009054906101000a900460ff16151514613dac576040517f08c379a0000000000000000000000000000000000000000000000000000000008152600401613da390614a1a565b60405180910390fd5b600560003373ffffffffffffffffffffffffffffffffffffffff1673ffffffffffffffffffffffffffffffffffffffff16815260200190815260200160002060009054906101000a900473ffffffffffffffffffffffffffffffffffffffff16905090565b604051806080016040528060608152602001606081526020016000151581526020016000151581525090565b60405180610100016040528060608152602001606081526020016060815260200160608152602001600081526020016000815260200160008152602001600073ffffffffffffffffffffffffffffffffffffffff1681525090565b6040518060a0016040528060608152602001606081526020016060815260200160001515815260200160006004811115613ed557613ed46145d0565b5b81525090565b6000604051905090565b600080fd5b600080fd5b600073ffffffffffffffffffffffffffffffffffffffff82169050919050565b6000613f1a82613eef565b9050919050565b613f2a81613f0f565b8114613f3557600080fd5b50565b600081359050613f4781613f21565b92915050565b600060208284031215613f6357613f62613ee5565b5b6000613f7184828501613f38565b91505092915050565b600081519050919050565b600082825260208201905092915050565b6000819050602082019050919050565b613faf81613f0f565b82525050565b6000613fc18383613fa6565b60208301905092915050565b6000602082019050919050565b6000613fe582613f7a565b613fef8185613f85565b9350613ffa83613f96565b8060005b8381101561402b5781516140128882613fb5565b975061401d83613fcd565b925050600181019050613ffe565b5085935050505092915050565b600060208201905081810360008301526140528184613fda565b905092915050565b600081519050919050565b600082825260208201905092915050565b60005b83811015614094578082015181840152602081019050614079565b60008484015250505050565b6000601f19601f8301169050919050565b60006140bc8261405a565b6140c68185614065565b93506140d6818560208601614076565b6140df816140a0565b840191505092915050565b60008115159050919050565b6140ff816140ea565b82525050565b6000608083016000830151848203600086015261412282826140b1565b9150506020830151848203602086015261413c82826140b1565b915050604083015161415160408601826140f6565b50606083015161416460608601826140f6565b508091505092915050565b600060208201905081810360008301526141898184614105565b905092915050565b6000819050919050565b6141a481614191565b82525050565b60006020820190506141bf600083018461419b565b92915050565b600080fd5b600080fd5b7f4e487b7100000000000000000000000000000000000000000000000000000000600052604160045260246000fd5b614207826140a0565b810181811067ffffffffffffffff82111715614226576142256141cf565b5b80604052505050565b6000614239613edb565b905061424582826141fe565b919050565b600067ffffffffffffffff821115614265576142646141cf565b5b61426e826140a0565b9050602081019050919050565b82818337600083830152505050565b600061429d6142988461424a565b61422f565b9050828152602081018484840111156142b9576142b86141ca565b5b6142c484828561427b565b509392505050565b600082601f8301126142e1576142e06141c5565b5b81356142f184826020860161428a565b91505092915050565b61430381614191565b811461430e57600080fd5b50565b600081359050614320816142fa565b92915050565b600080600080600080600060e0888a03121561434557614344613ee5565b5b600088013567ffffffffffffffff81111561436357614362613eea565b5b61436f8a828b016142cc565b975050602088013567ffffffffffffffff8111156143905761438f613eea565b5b61439c8a828b016142cc565b965050604088013567ffffffffffffffff8111156143bd576143bc613eea565b5b6143c98a828b016142cc565b955050606088013567ffffffffffffffff8111156143ea576143e9613eea565b5b6143f68a828b016142cc565b94505060806144078a828b01614311565b93505060a06144188a828b01614311565b92505060c06144298a828b01614311565b91505092959891949750929550565b6000806040838503121561444f5761444e613ee5565b5b600083013567ffffffffffffffff81111561446d5761446c613eea565b5b614479858286016142cc565b925050602083013567ffffffffffffffff81111561449a57614499613eea565b5b6144a6858286016142cc565b9150509250929050565b6144b981614191565b82525050565b60006101008301600083015184820360008601526144dd82826140b1565b915050602083015184820360208601526144f782826140b1565b9150506040830151848203604086015261451182826140b1565b9150506060830151848203606086015261452b82826140b1565b915050608083015161454060808601826144b0565b5060a083015161455360a08601826144b0565b5060c083015161456660c08601826144b0565b5060e083015161457960e0860182613fa6565b508091505092915050565b6000602082019050818103600083015261459e81846144bf565b905092915050565b6145af81613f0f565b82525050565b60006020820190506145ca60008301846145a6565b92915050565b7f4e487b7100000000000000000000000000000000000000000000000000000000600052602160045260246000fd5b600581106146105761460f6145d0565b5b50565b6000819050614621826145ff565b919050565b600061463182614613565b9050919050565b61464181614626565b82525050565b600060a083016000830151848203600086015261466482826140b1565b9150506020830151848203602086015261467e82826140b1565b9150506040830151848203604086015261469882826140b1565b91505060608301516146ad60608601826140f6565b5060808301516146c06080860182614638565b508091505092915050565b600060208201905081810360008301526146e58184614647565b905092915050565b6146f6816140ea565b82525050565b600060208201905061471160008301846146ed565b92915050565b600082825260208201905092915050565b60006147338261405a565b61473d8185614717565b935061474d818560208601614076565b614756816140a0565b840191505092915050565b6000602082019050818103600083015261477b8184614728565b905092915050565b60008060006060848603121561479c5761479b613ee5565b5b600084013567ffffffffffffffff8111156147ba576147b9613eea565b5b6147c6868287016142cc565b935050602084013567ffffffffffffffff8111156147e7576147e6613eea565b5b6147f3868287016142cc565b925050604084013567ffffffffffffffff81111561481457614813613eea565b5b614820868287016142cc565b9150509250925092565b7f42616e6b206e6f74207665726966696564000000000000000000000000000000600082015250565b6000614860601183614717565b915061486b8261482a565b602082019050919050565b6000602082019050818103600083015261488f81614853565b9050919050565b7f436c69656e74204b5943206973206e6f74207665726966696564000000000000600082015250565b60006148cc601a83614717565b91506148d782614896565b602082019050919050565b600060208201905081810360008301526148fb816148bf565b9050919050565b7f42616e6b2041646472657373206e6f7420726567697374657265640000000000600082015250565b6000614938601b83614717565b915061494382614902565b602082019050919050565b600060208201905081810360008301526149678161492b565b9050919050565b7f4e487b7100000000000000000000000000000000000000000000000000000000600052602260045260246000fd5b600060028204905060018216806149b557607f821691505b6020821081036149c8576149c761496e565b5b50919050565b7f557365722041646472657373206e6f7420726567697374657265640000000000600082015250565b6000614a04601b83614717565b9150614a0f826149ce565b602082019050919050565b60006020820190508181036000830152614a33816149f7565b9050919050565b7f4b594320616c72656164792075706c6f61646564000000000000000000000000600082015250565b6000614a70601483614717565b9150614a7b82614a3a565b602082019050919050565b60006020820190508181036000830152614a9f81614a63565b9050919050565b60008190508160005260206000209050919050565b60006020601f8301049050919050565b600082821b905092915050565b600060088302614b087fffffffffffffffffffffffffffffffffffffffffffffffffffffffffffffffff82614acb565b614b128683614acb565b95508019841693508086168417925050509392505050565b6000819050919050565b6000614b4f614b4a614b4584614191565b614b2a565b614191565b9050919050565b6000819050919050565b614b6983614b34565b614b7d614b7582614b56565b848454614ad8565b825550505050565b600090565b614b92614b85565b614b9d818484614b60565b505050565b5b81811015614bc157614bb6600082614b8a565b600181019050614ba3565b5050565b601f821115614c0657614bd781614aa6565b614be084614abb565b81016020851015614bef578190505b614c03614bfb85614abb565b830182614ba2565b50505b505050565b600082821c905092915050565b6000614c2960001984600802614c0b565b1980831691505092915050565b6000614c428383614c18565b9150826002028217905092915050565b614c5b8261405a565b67ffffffffffffffff811115614c7457614c736141cf565b5b614c7e825461499d565b614c89828285614bc5565b600060209050601f831160018114614cbc5760008415614caa578287015190505b614cb48582614c36565b865550614d1c565b601f198416614cca86614aa6565b60005b82811015614cf257848901518255600182019150602085019450602081019050614ccd565b86831015614d0f5784890151614d0b601f891682614c18565b8355505b6001600288020188555050505b505050505050565b7f42616e6b204164647265737320616c7265616479207265676973746572656400600082015250565b6000614d5a601f83614717565b9150614d6582614d24565b602082019050919050565b60006020820190508181036000830152614d8981614d4d565b9050919050565b7f54686973206163636f756e74206973207265676973746572656420617320612060008201527f7573657200000000000000000000000000000000000000000000000000000000602082015250565b6000614dec602483614717565b9150614df782614d90565b604082019050919050565b60006020820190508181036000830152614e1b81614ddf565b9050919050565b7f41646d696e206163636573732072657175697265640000000000000000000000600082015250565b6000614e58601583614717565b9150614e6382614e22565b602082019050919050565b60006020820190508181036000830152614e8781614e4b565b9050919050565b7f42616e6b20616c72656164792076657269666965640000000000000000000000600082015250565b6000614ec4601583614717565b9150614ecf82614e8e565b602082019050919050565b60006020820190508181036000830152614ef381614eb7565b9050919050565b7f4b5943206e6f742055706c6f6164656400000000000000000000000000000000600082015250565b6000614f30601083614717565b9150614f3b82614efa565b602082019050919050565b60006020820190508181036000830152614f5f81614f23565b9050919050565b7f4b5943206d757374206265207265717565737465642066697273740000000000600082015250565b6000614f9c601b83614717565b9150614fa782614f66565b602082019050919050565b60006020820190508181036000830152614fcb81614f8f565b9050919050565b7f55736572204164647265737320616c7265616479207265676973746572656400600082015250565b6000615008601f83614717565b915061501382614fd2565b602082019050919050565b6000602082019050818103600083015261503781614ffb565b9050919050565b7f546869732061646472657373206973207265676973746572656420617320612060008201527f62616e6b00000000000000000000000000000000000000000000000000000000602082015250565b600061509a602483614717565b91506150a58261503e565b604082019050919050565b600060208201905081810360008301526150c98161508d565b9050919050565b7f4b5943207374617475732073686f756c642062652075706c6f61646564000000600082015250565b6000615106601d83614717565b9150615111826150d0565b602082019050919050565b60006020820190508181036000830152615135816150f9565b905091905056fe4b594320686173206265656e2053756363657366756c6c7920766572696669656420a2646970667358221220276edfbe9fc73e9750f77412886e419a940290baed63703135392f3e93c4306864736f6c63430008130033",
  "linkReferences": {},
  "deployedLinkReferences": {}
}